{ blockHash:
   '0x44cfd47abe78d48b1c8c4e4f33cbc33144cbe5eb172b195a7bef9a3222f3666d',
  blockNumber: 629,
  chainId: null,
  condition: null,
  creates: null,
  from: '0x527DFBb2c4E02F83716f3e92022e46836d807e29',
  gas: '0x7408',
  gasPrice: '1000000000',
  hash:
   '0x15acea2188435a0d2c12b75693f84c7eff1488673c17a12ca2cd21ccceb08535',
  input:
   '0xae882cf100000000000000000000000000000000000000000000000000000000000000050000000000000000000000000000000000000000000000000000000000000005000000000000000000000000fbc736ba48b83f26ec2a3d5ddd4cba2bc92f7e29',
  nonce: 888,
  publicKey:
   '0xec0e1bc5a40f401a844588ca96df4facca378a0c0833a5e66a1e1e32e111d84bb9efb9e69ef44eb7bc4806c1db2596ddbf7d9fe2f3a08fd9bb6db1715b588227',
  r:
   '0xaddaf292fafe6c4f9c74e9e3214f0cd1feb62c1cb68e057c7a916942cef86034',
  raw:
   '0xf8ca820378843b9aca008274089450d021173922a9eb04c2b8c3748b140a65b974cf80b864ae882cf100000000000000000000000000000000000000000000000000000000000000050000000000000000000000000000000000000000000000000000000000000005000000000000000000000000fbc736ba48b83f26ec2a3d5ddd4cba2bc92f7e291ca0addaf292fafe6c4f9c74e9e3214f0cd1feb62c1cb68e057c7a916942cef86034a049d19c6cf99bb16d711a74fdf29bcc38fc4852151e75a1815ab64cc5f3f111b1',
  s:
   '0x49d19c6cf99bb16d711a74fdf29bcc38fc4852151e75a1815ab64cc5f3f111b1',
  standardV: '0x1',
  to: '0x50D021173922A9Eb04c2B8C3748B140a65B974Cf',
  transactionIndex: 0,
  v: '0x1c',
  value: '0' }